:100000000C9463000C948B000C948B000C948B006C
:100010000C948B000C948B000C948B000C948B0034
:100020000C948B000C948B000C948B000C948B0024
:100030000C948B000C948B000C948B000C948B0014
:100040000C94B2020C948B000C9493050C94C5058F
:100050000C948B000C948B000C948B000C948B00F4
:100060000C948B000C948B0000000008000201002F
:100070000003040700000000000000000102040863
:100080001020408001020408102001020408102002
:10009000040404040404040402020202020203032E
:1000A00003030303000000002300260029000000D2
:1000B0000000250028002B0000000000240027007D
:1000C0002A00EA00F50511241FBECFEFD8E0DEBFFD
:1000D000CDBF11E0A0E0B1E0E2EDF4E102C0059097
:1000E0000D92AC33B107D9F721E0ACE3B1E001C028
:1000F0001D92AE3FB207E1F710E0C6ECD0E004C0BD
:100100002297FE010E94630AC23CD107C9F70E94F0
:1001100039060C94670A0C94000026E040E855E28A
:1001200060E070E081E691E00E94310520E044E16A
:1001300062E080E491E00C94CB01CF93DF938EE0FA
:100140000E942504EC0140E060E080E491E00E9420
:10015000B10164E071E080E491E00E94860641E034
:1001600060E080E491E00E94B101219781F5409127
:100170003C0150913D0160913E0170913F0122E0B0
:1001800030E080E491E00E941D0820910001309150
:100190000101409102015091030160913C01709175
:1001A0003D0180913E0190913F010E9421086093A2
:1001B0003C0170933D0180933E0190933F0168EEB6
:1001C00073E080E090E0DF91CF910C941F03DF910A
:1001D000CF910895AF92CF92EF920F9382E0A82E25
:1001E00093E0C92E24E0E22E05E027E04BE06CE02E
:1001F00080E491E00E9486020F91EF90CF90AF9043
:100200000895CF93DF93EC0160E08E810E94EF03AD
:1002100081E090E00E94470361E08E810E94EF033D
:1002200081E090E00E94470360E08E810E94EF032E
:1002300084E690E0DF91CF910C944703CF92DF9258
:10024000EF92FF920F931F93CF93DF937C01C0E057
:10025000D0E0C62ED12C87010C0F1D1F61E0F801E4
:1002600087810E94B603B6010C2E02C07595679572
:100270000A94E2F76170F80187810E94EF032196EA
:10028000C430D10541F7C701DF91CF911F910F9184
:10029000FF90EF90DF90CF900C940101CF92DF920E
:1002A000EF92FF920F931F93CF93DF937C01C0E0F7
:1002B000D0E0C62ED12C87010C0F1D1F61E0F80184
:1002C00087810E94B603B6010C2E02C07595679512
:1002D0000A94E2F76170F80187810E94EF0321968A
:1002E000C830D10541F7C701DF91CF911F910F9120
:1002F000FF90EF90DF90CF900C9401011F93CF936C
:10030000DF93EC01162F642F8C810E94EF038D8107
:100310008F3F19F060E00E94EF038F85612F84FF0B
:1003200006C0CE01DF91CF911F910C944E0170E079
:1003300084E0759567958A95E1F7CE010E941E01CC
:10034000612FCE01DF91CF911F910C941E0140E0EF
:100350000C947E0161E00E94A70180ED97E00C946F
:100360004703443008F043E0FC012389421710F0B2
:100370004FEF420FFC01E40FF11D2489260F206886
:10038000622F0C94A701FC016089262F2460208B2A
:100390006C600C94A701CF93DF93EC01423018F00E
:1003A0008F8588608F874B8B1C8A80E48D8B6E8B4A
:1003B00070E0605C7F4F6F8B222329F0413019F48D
:1003C0008F8584608F8780E593EC0E94470360E00F
:1003D0008C810E94EF0360E08E810E94EF038D818B
:1003E0008F3F19F060E00E94EF036F8564FD1DC030
:1003F00063E0CE010E941E0184E991E10E9447035F
:1004000063E0CE010E941E0184E991E10E9447034E
:1004100063E0CE010E941E0186E990E00E9447033E
:1004200062E0CE010E941E0116C06062CE010E94F1
:10043000A70184E991E10E9447036F856062CE01C4
:100440000E94A70186E990E00E9447036F856062E1
:10045000CE010E94A7016F856062CE010E94A701B4
:1004600084E0888BCE010E94C301CE010E94AA01C4
:1004700082E0898B66E0CE01DF91CF910C94A701D9
:100480006F927F928F92AF92CF92EF920F931F93C2
:10049000CF93DF93CDB7DEB73C01162F842F5D8558
:1004A0004E853F859889F301848325830683E782FF
:1004B000C086A1868286538744873587968761E008
:1004C0000E94B603F30185818F3F19F061E00E941D
:1004D000B60361E0F30186810E94B603112319F08F
:1004E000F301178603C080E1F301878720E041E034
:1004F00060E1C301DF91CF911F910F91EF90CF90F9
:10050000AF908F907F906F900C94CB018F92AF92B1
:10051000CF92EF920F93DC0113961C921E921297CA
:10052000E7E1F1E0ED93FC931F921F921F921F925F
:100530008A2CAC2CCE2CE02E022F242F462F61E0EB
:100540000E9440020F900F900F900F900F91EF902C
:10055000CF90AF908F90089541E00E947E0181E09E
:1005600090E008951F920F920FB60F9211242F93CF
:100570003F938F939F93AF93BF9380915901909135
:100580005A01A0915B01B0915C013091580123E0C8
:10059000230F2D3720F40196A11DB11D05C026E8BB
:1005A000230F0296A11DB11D20935801809359017C
:1005B00090935A01A0935B01B0935C0180915D011F
:1005C00090915E01A0915F01B09160010196A11D23
:1005D000B11D80935D0190935E01A0935F01B09384
:1005E0006001BF91AF919F918F913F912F910F909B
:1005F0000FBE0F901F9018953FB7F89480915D0142
:1006000090915E01A0915F01B091600126B5A89B19
:1006100005C02F3F19F00196A11DB11D3FBF6627F0
:10062000782F892F9A2F620F711D811D911D42E035
:10063000660F771F881F991F4A95D1F70895CF92AB
:10064000DF92EF92FF92CF93DF936B017C010E94C8
:10065000FC02EB01C114D104E104F10489F00E9411
:100660001F080E94FC026C1B7D0B683E734090F3D8
:1006700081E0C81AD108E108F108C851DC4FEACF7F
:10068000DF91CF91FF90EF90DF90CF90089582306F
:10069000910538F0880F991F880F991F05970197CA
:1006A000F1F70895789484B5826084BD84B5816043
:1006B00084BD85B5826085BD85B5816085BDEEE66A
:1006C000F0E0808181608083E1E8F0E01082808149
:1006D00082608083808181608083E0E8F0E08081B7
:1006E00081608083E1EBF0E0808184608083E0EBD7
:1006F000F0E0808181608083EAE7F0E080818460BF
:10070000808380818260808380818160808380811A
:10071000806880831092C1000895833081F028F4AE
:10072000813099F08230A1F008958730A9F08830A7
:10073000B9F08430D1F4809180008F7D03C0809126
:1007400080008F7780938000089584B58F7702C0F2
:1007500084B58F7D84BD08958091B0008F7703C0EC
:100760008091B0008F7D8093B0000895CF93DF9388
:1007700090E0FC01E458FF4F2491FC01E057FF4F4B
:100780008491882349F190E0880F991FFC01E85477
:10079000FF4FA591B49182559F4FFC01C591D49113
:1007A0009FB7611108C0F8948C91209582238C9397
:1007B000888182230AC0623051F4F8948C91322FE0
:1007C000309583238C938881822B888304C0F8948E
:1007D0008C91822B8C939FBFDF91CF9108950F93C3
:1007E0001F93CF93DF931F92CDB7DEB7282F30E052
:1007F000F901E859FF4F8491F901E458FF4F149132
:10080000F901E057FF4F04910023C9F0882321F03C
:1008100069830E948D036981E02FF0E0EE0FFF1FD6
:10082000E255FF4FA591B4919FB7F8948C91611157
:1008300003C01095812301C0812B8C939FBF0F9023
:10084000DF91CF911F910F910895CF93DF93282FC0
:1008500030E0F901E859FF4F8491F901E458FF4F66
:10086000D491F901E057FF4FC491CC2391F081114D
:100870000E948D03EC2FF0E0EE0FFF1FEC55FF4FB1
:10088000A591B4912C912D2381E090E021F480E09A
:1008900002C080E090E0DF91CF910895FC01818D4E
:1008A000228D90E0805C9F4F821B91098F73992766
:1008B0000895FC01918D828D981731F0828DE80F9B
:1008C000F11D858D90E008958FEF9FEF0895FC0155
:1008D000918D828D981761F0828DDF01A80FB11D77
:1008E0005D968C91928D9F5F9F73928F90E008959B
:1008F0008FEF9FEF08958BEE95E0892B49F080E014
:1009000090E0892B29F00E94EB0581110C940000E6
:100910000895FC01848DDF01A80FB11DA35ABF4FBC
:100920002C91848D90E001968F739927848FA689EE
:10093000B7892C93A089B1898C9180648C93938D15
:10094000848D981306C00288F389E02D80818F7D05
:1009500080830895CF93DF93EC01888D8823C9F0BD
:10096000EA89FB89808185FD05C0A889B9898C91B8
:1009700086FD0FC00FB607FCF5CF808185FFF2CF53
:10098000A889B9898C9185FFEDCFCE010E94890499
:10099000E7CFDF91CF910895CF92DF92FF920F932F
:1009A0001F93CF93DF931F92CDB7DEB76C0181E029
:1009B000D60158968C9358975B969C915B975C9662
:1009C0008C915C97981307C05096ED91FC915197CC
:1009D000808185FD2EC0F601038D10E00F5F1F4F53
:1009E0000F731127F02EF601848DF81211C00FB687
:1009F00007FCF9CFD6015096ED91FC91519780817B
:100A000085FFF1CFC60169830E9489046981EBCF1C
:100A1000838DE80FF11DE35AFF4F6083D6015B968B
:100A20000C935B975296ED91FC9153978081806275
:100A30000CC0D6015696ED91FC9157976083509665
:100A4000ED91FC91519780818064808381E090E0FA
:100A50000F90DF91CF911F910F91FF90DF90CF907A
:100A60000895BF92CF92DF92EF92FF92CF93DF93E0
:100A7000EC016A017B01B22EE889F98982E080836A
:100A8000411581EE580761057105A1F060E079E03C
:100A90008DE390E0A70196010E943F0A21503109A1
:100AA000410951095695479537952795211580E1BC
:100AB000380798F0E889F989108260E874E88EE1D7
:100AC00090E0A70196010E943F0A21503109410997
:100AD00051095695479537952795EC85FD853083C7
:100AE000EE85FF852083188EEC89FD89B082EA8926
:100AF000FB89808180618083EA89FB8980818860AD
:100B00008083EA89FB89808180688083EA89FB8908
:100B100080818F7D8083DF91CF91FF90EF90DF9078
:100B2000CF90BF9008951F920F920FB60F9211248D
:100B30002F938F939F93EF93FF93E0917101F09127
:100B400072018081E0917701F091780182FD12C0FD
:100B5000908180917A018F5F8F7320917B01821742
:100B600051F0E0917A01F0E0EF59FE4F958F8093BC
:100B70007A0101C08081FF91EF919F918F912F9118
:100B80000F900FBE0F901F9018951F920F920FB6E7
:100B90000F9211242F933F934F935F936F937F9303
:100BA0008F939F93AF93BF93EF93FF9381E691E071
:100BB0000E948904FF91EF91BF91AF919F918F9116
:100BC0007F916F915F914F913F912F910F900FBE49
:100BD0000F901F90189581E691E00E944E0421E04D
:100BE000892B09F420E0822F08951092640110925D
:100BF000630188EE93E0A0E0B0E0809365019093FC
:100C00006601A0936701B09368018FE191E0909332
:100C100062018093610185EC90E090936E01809376
:100C20006D0184EC90E09093700180936F0180ECF3
:100C300090E0909372018093710181EC90E0909329
:100C400074018093730182EC90E09093760180931D
:100C5000750186EC90E09093780180937701109273
:100C60007A0110927B0110927C0110927D0108950F
:100C700008950E9452030E9438060E948D00CBE71F
:100C8000D4E00E949D002097E1F30E947B04F9CFFD
:100C9000CF92DF92EF92FF920F931F93CF93DF9348
:100CA0006C017A01EB01E60EF71E00E010E0CE15B4
:100CB000DF0561F06991D601ED91FC910190F08121
:100CC000E02DC6010995080F191FF1CFC801DF916A
:100CD000CF911F910F91FF90EF90DF90CF900895EB
:100CE0006115710581F0DB010D900020E9F7AD0180
:100CF00041505109461B570BDC01ED91FC910280DC
:100D0000F381E02D099480E090E008950C94700642
:100D1000DC01ED91FC910190F081E02D09948F921E
:100D20009F92AF92BF92CF92DF92EF92FF920F937A
:100D30001F93CF93DF93CDB7DEB7A1970FB6F8948B
:100D4000DEBF0FBECDBF7C01C42EE52FCB01D22E5E
:100D500019A221E02D1510F02AE0D22E8E010F5D90
:100D60001F4F8D2C912CA12CB12C6C2D7E2FA50109
:100D700094010E943F0A8C2DD29E801911240150AB
:100D800011098A3014F4805D01C0895CF801808308
:100D9000211531054105510521F0C22EE32FCA016D
:100DA000E4CFB801C7010E947006A1960FB6F8946F
:100DB000DEBF0FBECDBFDF91CF911F910F91FF908E
:100DC000EF90DF90CF90BF90AF909F908F9008955D
:100DD000CF92DF92EF92FF920F931F93CF93DF9307
:100DE000EC016A017B012115310579F4E881F98173
:100DF0000190F081E02D642FDF91CF911F910F9131
:100E0000FF90EF90DF90CF9009942A303105E9F4FC
:100E100077FF1AC06DE20E9488068C01442755278F
:100E2000BA014C195D096E097F092AE0CE010E94C2
:100E30008F06800F911FDF91CF911F910F91FF902F
:100E4000EF90DF90CF9008952AE0B701A601CE0180
:100E5000DF91CF911F910F91FF90EF90DF90CF9096
:100E60000C948F064F925F926F927F928F929F9217
:100E7000AF92BF92CF92DF92EF92FF920F931F93A8
:100E8000CF93DF93EC016A017B01B22E9A01AB0193
:100E9000C701B6010E943B0A882319F06EE271E097
:100EA00027C026013701E89477F82FEF3FEF4FE78F
:100EB0005FE7C301B2010E943B0A81110DC02FEF11
:100EC0003FEF4FE75FE7C301B2010E9485081816A4
:100ED0001CF462E371E00CC02FEF3FEF4FE75FE4DB
:100EE000C701B6010E94D4091816ACF466E371E09C
:100EF000CE01DF91CF911F910F91FF90EF90DF9086
:100F0000CF90BF90AF909F908F907F906F905F90A9
:100F10004F900C9470062FEF3FEF4FE75FECC70147
:100F2000B6010E94850887FDE1CF20E030E0A901ED
:100F3000C701B6010E94850887FF0AC06DE2CE0195
:100F40000E9488068C01F7FAF094F7F8F09402C03A
:100F500000E010E0A12C60E070E080E09FE3AB14C3
:100F600041F020E030E040E251E40E948908A3947F
:100F7000F6CF9B01AC01C701B6010E9421086B01AD
:100F80007C010E94F6082B013C010E9422099B0172
:100F9000AC01C701B6010E9420086B017C012AE068
:100FA000B301A201CE010E948F06080F191FBB20BA
:100FB00039F06AE371E0CE010E947006080F191F34
:100FC0007B2C772041F120E030E040E251E4C70182
:100FD000B6010E94D8096B017C010E94F1084B0107
:100FE000AA2497FCA094BA2C2AE030E0B501A40111
:100FF000CE010E94E806080F191FC501B4010E9426
:1010000024099B01AC01C701B6010E9420086B01B5
:101010007C017A94D6CFC801DF91CF911F910F91B7
:10102000FF90EF90DF90CF90BF90AF909F908F9008
:101030007F906F905F904F9008950C9432070895C1
:101040005058BB27AA270ED075C166D130F06BD19E
:1010500020F031F49F3F11F41EF45BC10EF4E095D3
:10106000E7FB51C1E92F77D180F3BA176207730705
:101070008407950718F071F49EF58FC10EF4E09582
:101080000B2EBA2FA02D0B01B90190010C01CA0142
:10109000A0011124FF27591B99F0593F50F4503EED
:1010A00068F11A16F040A22F232F342F4427585FDF
:1010B000F3CF469537952795A795F0405395C9F7F7
:1010C0007EF41F16BA0B620B730B840BBAF09150AF
:1010D000A1F0FF0FBB1F661F771F881FC2F70EC04E
:1010E000BA0F621F731F841F48F487957795679521
:1010F000B795F7959E3F08F0B3CF9395880F08F00A
:101100009927EE0F979587950895D9D008F481E037
:1011100008950CD00FC107D140F0FED030F021F47B
:101120005F3F19F0F0C0511139C1F3C014D198F3E9
:101130009923C9F35523B1F3951B550BBB27AA2758
:1011400062177307840738F09F5F5F4F220F331FCA
:10115000441FAA1FA9F333D00E2E3AF0E0E830D096
:1011600091505040E695001CCAF729D0FE2F27D099
:10117000660F771F881FBB1F261737074807AB0767
:10118000B0E809F0BB0B802DBF01FF2793585F4FDC
:101190002AF09E3F510568F0B6C000C15F3FECF3F6
:1011A000983EDCF3869577956795B795F7959F5FA1
:1011B000C9F7880F911D9695879597F90895E1E0F5
:1011C000660F771F881FBB1F621773078407BA0754
:1011D00020F0621B730B840BBA0BEE1F88F7E095AF
:1011E000089504D06894B111D9C00895BCD088F096
:1011F0009F5790F0B92F9927B751A0F0D1F0660F03
:10120000771F881F991F1AF0BA95C9F712C0B1301D
:1012100081F0C3D0B1E00895C0C0672F782F882730
:10122000B85F39F0B93FCCF3869577956795B3955C
:10123000D9F73EF490958095709561957F4F8F4FCB
:101240009F4F0895E89409C097FB3EF490958095D0
:10125000709561957F4F8F4F9F4F9923A9F0F92F7C
:1012600096E9BB279395F695879577956795B795FA
:10127000F111F8CFFAF4BB0F11F460FF1BC06F5FE0
:101280007F4F8F4F9F4F16C0882311F096E911C0F2
:10129000772321F09EE8872F762F05C0662371F013
:1012A00096E8862F70E060E02AF09A95660F771F27
:1012B000881FDAF7880F9695879597F90895990F03
:1012C0000008550FAA0BE0E8FEEF16161706E80710
:1012D000F907C0F012161306E407F50798F0621B31
:1012E000730B840B950B39F40A2661F0232B242B06
:1012F000252B21F408950A2609F4A140A6958FEF25
:10130000811D811D089597F99F6780E870E060E076
:1013100008959FEF80EC089500240A94161617068E
:1013200018060906089500240A94121613061406D6
:1013300005060895092E0394000C11F4882352F039
:10134000BB0F40F4BF2B11F460FF04C06F5F7F4FF1
:101350008F4F9F4F089557FD9058440F551F59F0D8
:101360005F3F71F04795880F97FB991F61F09F3F92
:1013700079F087950895121613061406551FF2CFBB
:101380004695F1DF08C0161617061806991FF1CF0B
:1013900086957105610508940895E894BB27662732
:1013A0007727CB0197F908958ADF08F48FEF089526
:1013B0000BD0C0CFB1DF28F0B6DF18F0952309F0CD
:1013C000A2CFA7CF1124EACFC6DFA0F3959FD1F318
:1013D000950F50E0551F629FF001729FBB27F00DE3
:1013E000B11D639FAA27F00DB11DAA1F649F662738
:1013F000B00DA11D661F829F2227B00DA11D621F87
:10140000739FB00DA11D621F839FA00D611D221F40
:10141000749F3327A00D611D231F849F600D211D24
:10142000822F762F6A2F11249F5750408AF0E1F0C7
:1014300088234AF0EE0FFF1FBB1F661F771F881F10
:1014400091505040A9F79E3F510570F05CCFA6CF58
:101450005F3FECF3983EDCF3869577956795B795FB
:10146000F795E7959F5FC1F7FE2B880F911D969525
:10147000879597F9089523DF880B990B0895A1E2CA
:101480001A2EAA1BBB1BFD010DC0AA1FBB1FEE1FFE
:10149000FF1FA217B307E407F50720F0A21BB30B49
:1014A000E40BF50B661F771F881F991F1A9469F7C5
:1014B00060957095809590959B01AC01BD01CF0121
:1014C0000895EE0FFF1F0590F491E02D0994F89414
:0214D000FFCF4C
:1014D200FBCB96412044697374616E636520286377
:1014E2006D290000000000AC02480600000000CC9C
:1014F2000448064E0467045904AA040D0A006E61EA
:0C1502006E00696E66006F7666002E00B9
:00000001FF
